{"abi":[{"type":"function","name":"example_no_uvdt","inputs":[],"outputs":[],"stateMutability":"view"},{"type":"function","name":"example_uvdt","inputs":[],"outputs":[],"stateMutability":"view"}],"bytecode":{"object":"0x6080604052348015600f57600080fd5b50606f80601d6000396000f3fe6080604052348015600f57600080fd5b506004361060325760003560e01c8063645e9edf1460375780639848d8e6146037575b600080fd5b00fea2646970667358221220757c5c55d82104a9b2665898cd9bf45bc6e2d03a0a88b94755ac485c1298ee5f64736f6c634300081c0033","linkReferences":{}},"methodIdentifiers":{"example_no_uvdt()":"645e9edf","example_uvdt()":"9848d8e6"},"id":0}