{"abi":[{"type":"function","name":"create","inputs":[{"name":"_text","type":"string","internalType":"string"}],"outputs":[],"stateMutability":"nonpayable"},{"type":"function","name":"get","inputs":[{"name":"_index","type":"uint256","internalType":"uint256"}],"outputs":[{"name":"text","type":"string","internalType":"string"},{"name":"completed","type":"bool","internalType":"bool"}],"stateMutability":"view"},{"type":"function","name":"todos","inputs":[{"name":"","type":"uint256","internalType":"uint256"}],"outputs":[{"name":"text","type":"string","internalType":"string"},{"name":"completed","type":"bool","internalType":"bool"}],"stateMutability":"view"},{"type":"function","name":"toggleCompleted","inputs":[{"name":"_index","type":"uint256","internalType":"uint256"}],"outputs":[],"stateMutability":"nonpayable"},{"type":"function","name":"updateText","inputs":[{"name":"_index","type":"uint256","internalType":"uint256"},{"name":"_text","type":"string","internalType":"string"}],"outputs":[],"stateMutability":"nonpayable"}],"bytecode":{"object":"0x6080604052348015600f57600080fd5b506108378061001f6000396000f3fe608060405234801561001057600080fd5b50600436106100575760003560e01c8063455f50241461005c5780639507d39a14610071578063b6a46b3b1461009b578063bc8bc2b4146100ae578063cd111614146100c1575b600080fd5b61006f61006a366004610489565b6100d4565b005b61008461007f366004610489565b61010f565b6040516100929291906104a2565b60405180910390f35b61006f6100a9366004610542565b6101e3565b6100846100bc366004610489565b610391565b61006f6100cf366004610584565b610450565b60008082815481106100e8576100e86105d0565b60009182526020909120600160029092020101805460ff19811660ff909116151790555050565b606060008060008481548110610127576101276105d0565b90600052602060002090600202019050806000018160010160009054906101000a900460ff16818054610159906105e6565b80601f0160208091040260200160405190810160405280929190818152602001828054610185906105e6565b80156101d25780601f106101a7576101008083540402835291602001916101d2565b820191906000526020600020905b8154815290600101906020018083116101b557829003601f168201915b505050505091509250925050915091565b6040805160606020601f850181900402820181018352918101838152600092829190869086908190850183828082843760009201829052509385525050506020918201819052835460018101855593815220815191926002020190819061024a9082610682565b506020918201516001909101805491151560ff19909216919091179055604080516060601f850184900490930281018301825290810183815260009282919086908690819085018382808284376000920182905250938552505050602091820181905283546001810185559381522081519192600202019081906102ce9082610682565b50602091820151600191909101805460ff1916911515919091179055604080518082018252606081526000818401528151601f850184900484028101840190925283825291849084908190840183828082843760009201829052509385525050815460018101835591805250815182916002027f290decd9548b62a8d60345a988386fc84ba6bc95484008f6362f93160ef3e563019081906103709082610682565b50602091909101516001909101805460ff1916911515919091179055505050565b600081815481106103a157600080fd5b90600052602060002090600202016000915090508060000180546103c4906105e6565b80601f01602080910402602001604051908101604052809291908181526020018280546103f0906105e6565b801561043d5780601f106104125761010080835404028352916020019161043d565b820191906000526020600020905b81548152906001019060200180831161042057829003601f168201915b5050506001909301549192505060ff1682565b6000808481548110610464576104646105d0565b60009182526020909120600290910201905080610482838583610741565b5050505050565b60006020828403121561049b57600080fd5b5035919050565b604081526000835180604084015260005b818110156104d057602081870181015160608684010152016104b3565b506000606082850101526060601f19601f83011684010191505082151560208301529392505050565b60008083601f84011261050b57600080fd5b50813567ffffffffffffffff81111561052357600080fd5b60208301915083602082850101111561053b57600080fd5b9250929050565b6000806020838503121561055557600080fd5b823567ffffffffffffffff81111561056c57600080fd5b610578858286016104f9565b90969095509350505050565b60008060006040848603121561059957600080fd5b83359250602084013567ffffffffffffffff8111156105b757600080fd5b6105c3868287016104f9565b9497909650939450505050565b634e487b7160e01b600052603260045260246000fd5b600181811c908216806105fa57607f821691505b60208210810361061a57634e487b7160e01b600052602260045260246000fd5b50919050565b634e487b7160e01b600052604160045260246000fd5b601f82111561067d57806000526020600020601f840160051c8101602085101561065d5750805b601f840160051c820191505b818110156104825760008155600101610669565b505050565b815167ffffffffffffffff81111561069c5761069c610620565b6106b0816106aa84546105e6565b84610636565b6020601f8211600181146106e457600083156106cc5750848201515b600019600385901b1c1916600184901b178455610482565b600084815260208120601f198516915b8281101561071457878501518255602094850194600190920191016106f4565b50848210156107325786840151600019600387901b60f8161c191681555b50505050600190811b01905550565b67ffffffffffffffff83111561075957610759610620565b61076d8361076783546105e6565b83610636565b6000601f8411600181146107a157600085156107895750838201355b600019600387901b1c1916600186901b178355610482565b600083815260209020601f19861690835b828110156107d257868501358255602094850194600190920191016107b2565b50868210156107ef5760001960f88860031b161c19848701351681555b505060018560011b018355505050505056fea264697066735822122020734fe8d26d48f8a30387f24458fa87065cc01d2a419e3c059578be69d5d3fa64736f6c634300081c0033","linkReferences":{}},"methodIdentifiers":{"create(string)":"b6a46b3b","get(uint256)":"9507d39a","todos(uint256)":"bc8bc2b4","toggleCompleted(uint256)":"455f5024","updateText(uint256,string)":"cd111614"},"id":0}