{"abi":[{"type":"function","name":"loop","inputs":[],"outputs":[],"stateMutability":"nonpayable"}],"bytecode":{"object":"0x6080604052348015600f57600080fd5b5060d080601d6000396000f3fe6080604052348015600f57600080fd5b506004361060285760003560e01c8063a92100cb14602d575b600080fd5b60336035565b005b60005b600a81101560565760038114604f57600581146056575b6001016038565b5060005b600a81101560715780606a816074565b915050605a565b50565b600060018201609357634e487b7160e01b600052601160045260246000fd5b506001019056fea26469706673582212203723cbabb73deafb7bab900d82a5a6c437d6558b58ca1fdbe71633b2cbd31a3864736f6c634300081c0033","linkReferences":{}},"methodIdentifiers":{"loop()":"a92100cb"},"id":0}