{"abi":[{"type":"function","name":"foo","inputs":[{"name":"x","type":"uint256","internalType":"uint256"}],"outputs":[{"name":"","type":"uint256","internalType":"uint256"}],"stateMutability":"pure"},{"type":"function","name":"ternary","inputs":[{"name":"_x","type":"uint256","internalType":"uint256"}],"outputs":[{"name":"","type":"uint256","internalType":"uint256"}],"stateMutability":"pure"}],"bytecode":{"object":"0x6080604052348015600f57600080fd5b5060fa8061001e6000396000f3fe6080604052348015600f57600080fd5b506004361060325760003560e01c80632fbebd3814603757806355278c5b146058575b600080fd5b6046604236600460ac565b6067565b60405190815260200160405180910390f35b6046606336600460ac565b6091565b6000600a821015607957506000919050565b6014821015608957506001919050565b506002919050565b6000600a821060a057600260a3565b60015b60ff1692915050565b60006020828403121560bd57600080fd5b503591905056fea26469706673582212202788339cbc7a2693cf0b8fd2ba352afd20719f99daa4995cd8101ba73ef0c64764736f6c634300081c0033","linkReferences":{}},"methodIdentifiers":{"foo(uint256)":"2fbebd38","ternary(uint256)":"55278c5b"},"id":0}