{"abi":[{"type":"function","name":"forever","inputs":[],"outputs":[],"stateMutability":"nonpayable"},{"type":"function","name":"i","inputs":[],"outputs":[{"name":"","type":"uint256","internalType":"uint256"}],"stateMutability":"view"}],"bytecode":{"object":"0x608060405260008055348015601357600080fd5b5060cf8060216000396000f3fe6080604052348015600f57600080fd5b506004361060325760003560e01c80639ff9a603146037578063e5aa3d5814603f575b600080fd5b603d6059565b005b604760005481565b60405190815260200160405180910390f35b6001600080828254606991906073565b9091555060599050565b80820180821115609357634e487b7160e01b600052601160045260246000fd5b9291505056fea26469706673582212209ae5e64dfd288f136d2658255beca512f59e8fc8813f3bcb71c44dd99f322ab664736f6c634300081c0033","linkReferences":{}},"methodIdentifiers":{"forever()":"9ff9a603","i()":"e5aa3d58"},"id":0}