{"abi":[{"type":"function","name":"get","inputs":[{"name":"_addr","type":"address","internalType":"address"}],"outputs":[{"name":"","type":"uint256","internalType":"uint256"}],"stateMutability":"view"},{"type":"function","name":"myMap","inputs":[{"name":"","type":"address","internalType":"address"}],"outputs":[{"name":"","type":"uint256","internalType":"uint256"}],"stateMutability":"view"},{"type":"function","name":"remove","inputs":[{"name":"_addr","type":"address","internalType":"address"}],"outputs":[],"stateMutability":"nonpayable"},{"type":"function","name":"set","inputs":[{"name":"_addr","type":"address","internalType":"address"},{"name":"_i","type":"uint256","internalType":"uint256"}],"outputs":[],"stateMutability":"nonpayable"}],"bytecode":{"object":"0x6080604052348015600f57600080fd5b5061019e8061001f6000396000f3fe608060405234801561001057600080fd5b506004361061004c5760003560e01c806327cbd5291461005157806329092d0e146100835780633825d828146100ad578063c2bc2efc146100d7575b600080fd5b61007161005f36600461011c565b60006020819052908152604090205481565b60405190815260200160405180910390f35b6100ab61009136600461011c565b6001600160a01b0316600090815260208190526040812055565b005b6100ab6100bb36600461013e565b6001600160a01b03909116600090815260208190526040902055565b6100716100e536600461011c565b6001600160a01b031660009081526020819052604090205490565b80356001600160a01b038116811461011757600080fd5b919050565b60006020828403121561012e57600080fd5b61013782610100565b9392505050565b6000806040838503121561015157600080fd5b61015a83610100565b94602093909301359350505056fea2646970667358221220bb5b1582abbe5115222c9fcae659472f299cf0b61d0542024dd8c3887c947b5364736f6c634300081c0033","linkReferences":{}},"methodIdentifiers":{"get(address)":"c2bc2efc","myMap(address)":"27cbd529","remove(address)":"29092d0e","set(address,uint256)":"3825d828"},"id":0}