{"abi":[{"type":"function","name":"get","inputs":[{"name":"_addr1","type":"address","internalType":"address"},{"name":"_i","type":"uint256","internalType":"uint256"}],"outputs":[{"name":"","type":"bool","internalType":"bool"}],"stateMutability":"view"},{"type":"function","name":"nested","inputs":[{"name":"","type":"address","internalType":"address"},{"name":"","type":"uint256","internalType":"uint256"}],"outputs":[{"name":"","type":"bool","internalType":"bool"}],"stateMutability":"view"},{"type":"function","name":"remove","inputs":[{"name":"_addr1","type":"address","internalType":"address"},{"name":"_i","type":"uint256","internalType":"uint256"}],"outputs":[],"stateMutability":"nonpayable"},{"type":"function","name":"set","inputs":[{"name":"_addr1","type":"address","internalType":"address"},{"name":"_i","type":"uint256","internalType":"uint256"},{"name":"_boo","type":"bool","internalType":"bool"}],"outputs":[],"stateMutability":"nonpayable"}],"bytecode":{"object":"0x6080604052348015600f57600080fd5b506102048061001f6000396000f3fe608060405234801561001057600080fd5b506004361061004c5760003560e01c80630b1391941461005157806314bd0a7b14610094578063abe7f1ab146100d3578063b464631b1461010c575b600080fd5b61009261005f36600461015f565b6001600160a01b039290921660009081526020818152604080832093835292905220805460ff1916911515919091179055565b005b6100bf6100a23660046101a4565b600060208181529281526040808220909352908152205460ff1681565b604051901515815260200160405180910390f35b6100926100e13660046101a4565b6001600160a01b0390911660009081526020818152604080832093835292905220805460ff19169055565b6100bf61011a3660046101a4565b6001600160a01b0391909116600090815260208181526040808320938352929052205460ff1690565b80356001600160a01b038116811461015a57600080fd5b919050565b60008060006060848603121561017457600080fd5b61017d84610143565b9250602084013591506040840135801515811461019957600080fd5b809150509250925092565b600080604083850312156101b757600080fd5b6101c083610143565b94602093909301359350505056fea26469706673582212209e75f745860e39b48b7c02df2e6d9bed56585603bd820a6746476443de71c8d264736f6c634300081c0033","linkReferences":{}},"methodIdentifiers":{"get(address,uint256)":"b464631b","nested(address,uint256)":"14bd0a7b","remove(address,uint256)":"abe7f1ab","set(address,uint256,bool)":"0b139194"},"id":0}