{"abi":[{"type":"constructor","inputs":[{"name":"_myUint","type":"uint256","internalType":"uint256"}],"stateMutability":"nonpayable"},{"type":"function","name":"MY_ADDRESS","inputs":[],"outputs":[{"name":"","type":"address","internalType":"address"}],"stateMutability":"view"},{"type":"function","name":"MY_UINT","inputs":[],"outputs":[{"name":"","type":"uint256","internalType":"uint256"}],"stateMutability":"view"}],"bytecode":{"object":"0x60c0604052348015600f57600080fd5b50604051610153380380610153833981016040819052602c916037565b3360805260a052604f565b600060208284031215604857600080fd5b5051919050565b60805160a05160e36100706000396000603b015260006074015260e36000f3fe6080604052348015600f57600080fd5b506004361060325760003560e01c80631f6649e31460375780633a756cec146070575b600080fd5b605d7f000000000000000000000000000000000000000000000000000000000000000081565b6040519081526020015b60405180910390f35b60967f000000000000000000000000000000000000000000000000000000000000000081565b6040516001600160a01b039091168152602001606756fea2646970667358221220193a3254cf1c2f782dd9ca0ca8b9731dd0b72f7c3169b3914de8dbe28ec97fe664736f6c634300081c0033","linkReferences":{}},"methodIdentifiers":{"MY_ADDRESS()":"3a756cec","MY_UINT()":"1f6649e3"},"id":0}