{"abi":[{"type":"function","name":"MY_ADDRESS","inputs":[],"outputs":[{"name":"","type":"address","internalType":"address"}],"stateMutability":"view"},{"type":"function","name":"MY_UINT","inputs":[],"outputs":[{"name":"","type":"uint256","internalType":"uint256"}],"stateMutability":"view"}],"bytecode":{"object":"0x6080604052348015600f57600080fd5b5060b880601d6000396000f3fe6080604052348015600f57600080fd5b506004361060325760003560e01c80631f6649e31460375780633a756cec146051575b600080fd5b603e607b81565b6040519081526020015b60405180910390f35b606b73777788889999aaaabbbbccccddddeeeeffffcccc81565b6040516001600160a01b039091168152602001604856fea264697066735822122065db72721a8005a5312006860dbc64db3feff07649a9c90fa2a5cc8fb3a4503264736f6c634300081c0033","linkReferences":{}},"methodIdentifiers":{"MY_ADDRESS()":"3a756cec","MY_UINT()":"1f6649e3"},"id":0}