{"abi":[{"type":"function","name":"isOneEther","inputs":[],"outputs":[{"name":"","type":"bool","internalType":"bool"}],"stateMutability":"view"},{"type":"function","name":"isOneGwei","inputs":[],"outputs":[{"name":"","type":"bool","internalType":"bool"}],"stateMutability":"view"},{"type":"function","name":"isOneWei","inputs":[],"outputs":[{"name":"","type":"bool","internalType":"bool"}],"stateMutability":"view"},{"type":"function","name":"oneEther","inputs":[],"outputs":[{"name":"","type":"uint256","internalType":"uint256"}],"stateMutability":"view"},{"type":"function","name":"oneGwei","inputs":[],"outputs":[{"name":"","type":"uint256","internalType":"uint256"}],"stateMutability":"view"},{"type":"function","name":"oneWei","inputs":[],"outputs":[{"name":"","type":"uint256","internalType":"uint256"}],"stateMutability":"view"}],"bytecode":{"object":"0x608060405260016000819055805460ff1990811682178255633b9aca0060025560038054821683179055670de0b6b3a7640000600455600580549091169091179055348015604c57600080fd5b5060f38061005b6000396000f3fe6080604052348015600f57600080fd5b5060043610605a5760003560e01c806328dc556f14605f578063481499c71460805780634fb2e0be14608c5780638e50b65c1460a1578063cf0f5d291460a9578063d297a89f1460b5575b600080fd5b600154606b9060ff1681565b60405190151581526020015b60405180910390f35b600354606b9060ff1681565b609460005481565b6040519081526020016077565b609460025481565b600554606b9060ff1681565b60946004548156fea26469706673582212208626ca9ee7a73f92c3b889c3def2b42f934ec77ff3b0287cad995487447af40d64736f6c634300081c0033","linkReferences":{}},"methodIdentifiers":{"isOneEther()":"cf0f5d29","isOneGwei()":"481499c7","isOneWei()":"28dc556f","oneEther()":"d297a89f","oneGwei()":"8e50b65c","oneWei()":"4fb2e0be"},"id":0}