{"abi":[{"type":"function","name":"addr","inputs":[],"outputs":[{"name":"","type":"address","internalType":"address"}],"stateMutability":"view"},{"type":"function","name":"boo","inputs":[],"outputs":[{"name":"","type":"bool","internalType":"bool"}],"stateMutability":"view"},{"type":"function","name":"defaultAddr","inputs":[],"outputs":[{"name":"","type":"address","internalType":"address"}],"stateMutability":"view"},{"type":"function","name":"defaultBoo","inputs":[],"outputs":[{"name":"","type":"bool","internalType":"bool"}],"stateMutability":"view"},{"type":"function","name":"defaultInt","inputs":[],"outputs":[{"name":"","type":"int256","internalType":"int256"}],"stateMutability":"view"},{"type":"function","name":"defaultUint","inputs":[],"outputs":[{"name":"","type":"uint256","internalType":"uint256"}],"stateMutability":"view"},{"type":"function","name":"i","inputs":[],"outputs":[{"name":"","type":"int256","internalType":"int256"}],"stateMutability":"view"},{"type":"function","name":"i256","inputs":[],"outputs":[{"name":"","type":"int256","internalType":"int256"}],"stateMutability":"view"},{"type":"function","name":"i8","inputs":[],"outputs":[{"name":"","type":"int8","internalType":"int8"}],"stateMutability":"view"},{"type":"function","name":"u","inputs":[],"outputs":[{"name":"","type":"uint256","internalType":"uint256"}],"stateMutability":"view"},{"type":"function","name":"u16","inputs":[],"outputs":[{"name":"","type":"uint16","internalType":"uint16"}],"stateMutability":"view"},{"type":"function","name":"u256","inputs":[],"outputs":[{"name":"","type":"uint256","internalType":"uint256"}],"stateMutability":"view"},{"type":"function","name":"u8","inputs":[],"outputs":[{"name":"","type":"uint8","internalType":"uint8"}],"stateMutability":"view"}],"bytecode":{"object":"0x60806040526000805463ffffffff1916623701011790556101c86001819055600c6002556003805460ff60ff19909116179055600455607a19600555600680546001600160b01b0319167556b5ca35b7d915458ef540ade6068dfe2f44e8fa733c179055348015606e57600080fd5b5061022d8061007e6000396000f3fe608060405234801561001057600080fd5b50600436106100cf5760003560e01c80635abe622b1161008c578063ab3a58a311610066578063ab3a58a3146101ae578063c6a898c5146101d2578063e5aa3d58146101db578063f2427d37146101e457600080fd5b80635abe622b1461015a578063767800de14610163578063921cda741461018e57600080fd5b8063074eef3f146100d45780630a6b4e06146100fd5780631570c2cb14610124578063459b1acf1461013b5780634b3df200146101445780634c27fd6214610151575b600080fd5b6006546100e890600160b01b900460ff1681565b60405190151581526020015b60405180910390f35b6000546101119062010000900461ffff1681565b60405161ffff90911681526020016100f4565b61012d60075481565b6040519081526020016100f4565b61012d60015481565b6000546100e89060ff1681565b61012d60045481565b61012d60085481565b600654610176906001600160a01b031681565b6040516001600160a01b0390911681526020016100f4565b60035461019b9060000b81565b60405160009190910b81526020016100f4565b6000546101c090610100900460ff1681565b60405160ff90911681526020016100f4565b61012d60025481565b61012d60055481565b600954610176906001600160a01b03168156fea264697066735822122020259a5d28badad32e617e066e0b48105dbba3858d815653ffb29d6c1b9362ee64736f6c634300081c0033","linkReferences":{}},"methodIdentifiers":{"addr()":"767800de","boo()":"4b3df200","defaultAddr()":"f2427d37","defaultBoo()":"074eef3f","defaultInt()":"5abe622b","defaultUint()":"1570c2cb","i()":"e5aa3d58","i256()":"4c27fd62","i8()":"921cda74","u()":"c6a898c5","u16()":"0a6b4e06","u256()":"459b1acf","u8()":"ab3a58a3"},"id":0}