{"abi":[{"type":"function","name":"cancel","inputs":[],"outputs":[],"stateMutability":"nonpayable"},{"type":"function","name":"get","inputs":[],"outputs":[{"name":"","type":"uint8","internalType":"enum Enum.Status"}],"stateMutability":"view"},{"type":"function","name":"reset","inputs":[],"outputs":[],"stateMutability":"nonpayable"},{"type":"function","name":"set","inputs":[{"name":"_status","type":"uint8","internalType":"enum Enum.Status"}],"outputs":[],"stateMutability":"nonpayable"},{"type":"function","name":"status","inputs":[],"outputs":[{"name":"","type":"uint8","internalType":"enum Enum.Status"}],"stateMutability":"view"}],"bytecode":{"object":"0x6080604052348015600f57600080fd5b506101838061001f6000396000f3fe608060405234801561001057600080fd5b50600436106100575760003560e01c8063200d2ed21461005c57806324b8ba5f1461007f5780636d4ce63c14610094578063d826f88f1461009f578063ea8a1af0146100ae575b600080fd5b6000546100699060ff1681565b60405161007691906100fd565b60405180910390f35b61009261008d366004610125565b6100c0565b005b60005460ff16610069565b6100926000805460ff19169055565b6100926000805460ff19166004179055565b6000805482919060ff191660018360048111156100df576100df6100e7565b021790555050565b634e487b7160e01b600052602160045260246000fd5b602081016005831061011f57634e487b7160e01b600052602160045260246000fd5b91905290565b60006020828403121561013757600080fd5b81356005811061014657600080fd5b939250505056fea2646970667358221220522cead6cc00962365da95a25cb691d3e451509f44881e561a7879811b142cac64736f6c634300081c0033","linkReferences":{}},"methodIdentifiers":{"cancel()":"ea8a1af0","get()":"6d4ce63c","reset()":"d826f88f","set(uint8)":"24b8ba5f","status()":"200d2ed2"},"id":0}