{"abi":[{"type":"function","name":"get","inputs":[],"outputs":[{"name":"","type":"uint256","internalType":"uint256"}],"stateMutability":"view"},{"type":"function","name":"num","inputs":[],"outputs":[{"name":"","type":"uint256","internalType":"uint256"}],"stateMutability":"view"},{"type":"function","name":"set","inputs":[{"name":"_num","type":"uint256","internalType":"uint256"}],"outputs":[],"stateMutability":"nonpayable"}],"bytecode":{"object":"0x6080604052348015600f57600080fd5b5060c280601d6000396000f3fe6080604052348015600f57600080fd5b5060043610603c5760003560e01c80634e70b1dc14604157806360fe47b114605b5780636d4ce63c14606d575b600080fd5b604960005481565b60405190815260200160405180910390f35b606b60663660046074565b600055565b005b6000546049565b600060208284031215608557600080fd5b503591905056fea26469706673582212208ea1bc74a65aa8e96adfd29b3214adf8a9433e5f8275daa4bc13974b4182957464736f6c634300081c0033","linkReferences":{}},"methodIdentifiers":{"get()":"6d4ce63c","num()":"4e70b1dc","set(uint256)":"60fe47b1"},"id":0}