{"abi":[{"type":"function","name":"doSomething","inputs":[],"outputs":[],"stateMutability":"pure"},{"type":"function","name":"num","inputs":[],"outputs":[{"name":"","type":"uint256","internalType":"uint256"}],"stateMutability":"view"},{"type":"function","name":"text","inputs":[],"outputs":[{"name":"","type":"string","internalType":"string"}],"stateMutability":"view"}],"bytecode":{"object":"0x60c060405260046080908152634179797960e01b60a05260009061002390826100f1565b506104d160015542600255600380546001600160a01b0319163317905534801561004c57600080fd5b506101af565b634e487b7160e01b600052604160045260246000fd5b600181811c9082168061007c57607f821691505b60208210810361009c57634e487b7160e01b600052602260045260246000fd5b50919050565b601f8211156100ec57806000526020600020601f840160051c810160208510156100c95750805b601f840160051c820191505b818110156100e957600081556001016100d5565b50505b505050565b81516001600160401b0381111561010a5761010a610052565b61011e816101188454610068565b846100a2565b6020601f821160018114610152576000831561013a5750848201515b600019600385901b1c1916600184901b1784556100e9565b600084815260208120601f198516915b828110156101825787850151825560209485019460019092019101610162565b50848210156101a05786840151600019600387901b60f8161c191681555b50505050600190811b01905550565b6101c9806101be6000396000f3fe608060405234801561001057600080fd5b50600436106100415760003560e01c80631f1bd692146100465780634e70b1dc14610064578063826926791461007b575b600080fd5b61004e61007d565b60405161005b919061010b565b60405180910390f35b61006d60015481565b60405190815260200161005b565b005b6000805461008a90610159565b80601f01602080910402602001604051908101604052809291908181526020018280546100b690610159565b80156101035780601f106100d857610100808354040283529160200191610103565b820191906000526020600020905b8154815290600101906020018083116100e657829003601f168201915b505050505081565b602081526000825180602084015260005b81811015610139576020818601810151604086840101520161011c565b506000604082850101526040601f19601f83011684010191505092915050565b600181811c9082168061016d57607f821691505b60208210810361018d57634e487b7160e01b600052602260045260246000fd5b5091905056fea26469706673582212206c49fa3f8f1dd746963e2457d61e31b2a58e3179cb44c928b264f28d6c53d13d64736f6c634300081c0033","linkReferences":{}},"methodIdentifiers":{"doSomething()":"82692679","num()":"4e70b1dc","text()":"1f1bd692"},"id":0}